{
  "contractName": "CreateNFT",
  "abi": [
    {
      "inputs": [],
      "name": "_tokenId",
      "outputs": [
        {
          "internalType": "uint256",
          "name": "",
          "type": "uint256"
        }
      ],
      "stateMutability": "view",
      "type": "function",
      "constant": true
    },
    {
      "inputs": [
        {
          "internalType": "string",
          "name": "_tokenURI",
          "type": "string"
        }
      ],
      "name": "CreateTokenURI",
      "outputs": [
        {
          "internalType": "uint256",
          "name": "",
          "type": "uint256"
        },
        {
          "internalType": "string",
          "name": "",
          "type": "string"
        }
      ],
      "stateMutability": "nonpayable",
      "type": "function"
    },
    {
      "inputs": [
        {
          "internalType": "uint256",
          "name": "_tId",
          "type": "uint256"
        }
      ],
      "name": "getTokenURI",
      "outputs": [
        {
          "internalType": "string",
          "name": "",
          "type": "string"
        }
      ],
      "stateMutability": "view",
      "type": "function",
      "constant": true
    },
    {
      "inputs": [],
      "name": "getAllTokenURIs",
      "outputs": [
        {
          "internalType": "string[]",
          "name": "",
          "type": "string[]"
        }
      ],
      "stateMutability": "view",
      "type": "function",
      "constant": true
    }
  ],
  "bytecode": "0x60806040526000805534801561001457600080fd5b50610b2c806100246000396000f3fe608060405234801561001057600080fd5b5060043610610069576000357c010000000000000000000000000000000000000000000000000000000090048063248225141461006e5780633bb3a24d1461008c57806389fde7af146100bc578063cf14aab5146100da575b600080fd5b61007661010b565b6040516100839190610356565b60405180910390f35b6100a660048036038101906100a191906103b1565b610111565b6040516100b3919061046e565b60405180910390f35b6100c46101bc565b6040516100d1919061059c565b60405180910390f35b6100f460048036038101906100ef91906106f3565b6102f3565b60405161010292919061073c565b60405180910390f35b60005481565b606060006001600084815260200190815260200160002080546101339061079b565b80601f016020809104026020016040519081016040528092919081815260200182805461015f9061079b565b80156101ac5780601f10610181576101008083540402835291602001916101ac565b820191906000526020600020905b81548152906001019060200180831161018f57829003601f168201915b5050505050905080915050919050565b60606000805467ffffffffffffffff8111156101db576101da6105c8565b5b60405190808252806020026020018201604052801561020e57816020015b60608152602001906001900390816101f95790505b50905060005b6000548110156102eb5760016000828152602001908152602001600020805461023c9061079b565b80601f01602080910402602001604051908101604052809291908181526020018280546102689061079b565b80156102b55780601f1061028a576101008083540402835291602001916102b5565b820191906000526020600020905b81548152906001019060200180831161029857829003601f168201915b50505050508282815181106102cd576102cc6107cc565b5b602002602001018190525080806102e39061082a565b915050610214565b508091505090565b6000606082600160008054815260200190815260200160002090816103189190610a24565b5060008081548092919061032b9061082a565b91905055506000548391509150915091565b6000819050919050565b6103508161033d565b82525050565b600060208201905061036b6000830184610347565b92915050565b6000604051905090565b600080fd5b600080fd5b61038e8161033d565b811461039957600080fd5b50565b6000813590506103ab81610385565b92915050565b6000602082840312156103c7576103c661037b565b5b60006103d58482850161039c565b91505092915050565b600081519050919050565b600082825260208201905092915050565b60005b838110156104185780820151818401526020810190506103fd565b60008484015250505050565b6000601f19601f8301169050919050565b6000610440826103de565b61044a81856103e9565b935061045a8185602086016103fa565b61046381610424565b840191505092915050565b600060208201905081810360008301526104888184610435565b905092915050565b600081519050919050565b600082825260208201905092915050565b6000819050602082019050919050565b600082825260208201905092915050565b60006104d8826103de565b6104e281856104bc565b93506104f28185602086016103fa565b6104fb81610424565b840191505092915050565b600061051283836104cd565b905092915050565b6000602082019050919050565b600061053282610490565b61053c818561049b565b93508360208202850161054e856104ac565b8060005b8581101561058a578484038952815161056b8582610506565b94506105768361051a565b925060208a01995050600181019050610552565b50829750879550505050505092915050565b600060208201905081810360008301526105b68184610527565b905092915050565b600080fd5b600080fd5b7f4e487b7100000000000000000000000000000000000000000000000000000000600052604160045260246000fd5b61060082610424565b810181811067ffffffffffffffff8211171561061f5761061e6105c8565b5b80604052505050565b6000610632610371565b905061063e82826105f7565b919050565b600067ffffffffffffffff82111561065e5761065d6105c8565b5b61066782610424565b9050602081019050919050565b82818337600083830152505050565b600061069661069184610643565b610628565b9050828152602081018484840111156106b2576106b16105c3565b5b6106bd848285610674565b509392505050565b600082601f8301126106da576106d96105be565b5b81356106ea848260208601610683565b91505092915050565b6000602082840312156107095761070861037b565b5b600082013567ffffffffffffffff81111561072757610726610380565b5b610733848285016106c5565b91505092915050565b60006040820190506107516000830185610347565b81810360208301526107638184610435565b90509392505050565b7f4e487b7100000000000000000000000000000000000000000000000000000000600052602260045260246000fd5b600060028204905060018216806107b357607f821691505b6020821081036107c6576107c561076c565b5b50919050565b7f4e487b7100000000000000000000000000000000000000000000000000000000600052603260045260246000fd5b7f4e487b7100000000000000000000000000000000000000000000000000000000600052601160045260246000fd5b60006108358261033d565b91507fffffffffffffffffffffffffffffffffffffffffffffffffffffffffffffffff8203610867576108666107fb565b5b600182019050919050565b60008190508160005260206000209050919050565b60006020601f8301049050919050565b60008160020a8302905092915050565b6000600883026108d77fffffffffffffffffffffffffffffffffffffffffffffffffffffffffffffffff82610897565b6108e18683610897565b95508019841693508086168417925050509392505050565b6000819050919050565b600061091e6109196109148461033d565b6108f9565b61033d565b9050919050565b6000819050919050565b61093883610903565b61094c61094482610925565b8484546108a7565b825550505050565b600090565b610961610954565b61096c81848461092f565b505050565b5b8181101561099057610985600082610959565b600181019050610972565b5050565b601f8211156109d5576109a681610872565b6109af84610887565b810160208510156109be578190505b6109d26109ca85610887565b830182610971565b50505b505050565b60008160020a8304905092915050565b60006109fb600019846008026109da565b1980831691505092915050565b6000610a1483836109ea565b9150826002028217905092915050565b610a2d826103de565b67ffffffffffffffff811115610a4657610a456105c8565b5b610a50825461079b565b610a5b828285610994565b600060209050601f831160018114610a8e5760008415610a7c578287015190505b610a868582610a08565b865550610aee565b601f198416610a9c86610872565b60005b82811015610ac457848901518255600182019150602085019450602081019050610a9f565b86831015610ae15784890151610add601f8916826109ea565b8355505b6001600288020188555050505b50505050505056fea26469706673582212203aa601bdfb4f96a3de0f13131fabd4eb692eb4da8846861de2a18cfff4c5eb7364736f6c63430008110033",
  "immutableReferences": {},
  "source": "//SPDX-License-Identifier: MIT\npragma solidity ^0.8.17;\n\ncontract CreateNFT {\n    uint public _tokenId = 0;\n    mapping (uint=>string) private _tokenURIs;\n\n    function CreateTokenURI (string memory _tokenURI) public returns(uint, string memory)\n        {\n            _tokenURIs[_tokenId]= _tokenURI;\n            _tokenId++;\n            return(_tokenId, _tokenURI);\n        }\n    \n    function getTokenURI (uint _tId) public view returns(string memory)\n    {\n        string memory _currentURI = _tokenURIs[_tId];\n        return _currentURI;\n    }\n\nfunction getAllTokenURIs() public view returns(string[] memory)\n{\nstring[]  memory uris = new string[](_tokenId);\nfor (uint i = 0; i< _tokenId; i++){\n    uris[i] = _tokenURIs[i];\n}\nreturn uris;\n}\n\n\n}",
  "sourcePath": "/Users/kundanray/Desktop/Techs/Flutter Devs/my_app/contracts/CreateNFT.sol",
  "compiler": {
    "name": "solc",
    "version": "0.8.17+commit.8df45f5f.Emscripten.clang"
  },
  "schemaVersion": "3.4.11",
  "updatedAt": "2022-12-12T07:30:52.340Z",
  "networkType": "ethereum",
  "devdoc": {
    "kind": "dev",
    "methods": {},
    "version": 1
  },
  "userdoc": {
    "kind": "user",
    "methods": {},
    "version": 1
  }
}